:020000040800F2
:10000000C035002075F20A0845F00A0847F00A08D2
:1000100049F00A084BF00A084DF00A08B1F20A0844
:100020000000000000000000000000004FF00A087F
:1000300051F00A080000000053F00A0855F00A08C1
:10004000B5F20A08B9F20A08BDF20A08C1F20A08B4
:10005000C5F20A08C9F20A08CDF20A08D1F20A0864
:10006000D5F20A08D9F20A08DDF20A0859F00A089E
:10007000E1F20A08E5F20A08E9F20A08EDF20A08D4
:10008000F1F20A08F5F20A08F9F20A08FDF20A0884
:1000900001F30A0805F30A0809F30A080DF30A0830
:1000A00011F30A0815F30A085FF00A0819F30A08A1
:1000B0001DF30A0821F30A0825F30A0829F30A08A0
:1000C0002DF30A0831F30A0835F30A0839F30A0850
:1000D0003DF30A0841F30A0845F30A0849F30A0800
:1000E0004DF30A0851F30A0855F30A0859F30A08B0
:1000F0005DF30A0861F30A0865F30A0869F30A0860
:100100006DF30A0871F30A0875F30A0879F30A080F
:100110007DF30A0881F30A0885F30A0889F30A08BF
:100120008DF30A0891F30A0895F30A0899F30A086F
:100130009DF30A0867F00A086DF00A0873F00A08D0
:10014000A1F30A08A5F30A08A9F30A08ADF30A08FF
:10015000B1F30A08B5F30A08B9F30A08BDF30A08AF
:10016000C1F30A08C5F30A08C9F30A08CDF30A085F
:10017000D1F30A08D5F30A08D9F30A08DDF30A080F
:10018000E1F30A08E5F30A08E9F30A08EDF30A08BF
:10019000F1F30A08F5F30A08F9F30A08FDF30A086F
:1001A00001F40A0805F40A0809F40A080DF40A081B
:1001B00011F40A0815F40A0819F40A081DF40A08CB
:1001C00021F40A0825F40A0829F40A082DF40A087B
:1001D00031F40A0835F40A0839F40A083DF40A082B
:1001E00041F40A0845F40A0849F40A084DF40A08DB
:1001F00051F40A0855F40A0859F40A085DF40A088B
:1002000061F40A0865F40A0869F40A086DF40A083A
:1002100071F40A0875F40A0879F40A087DF40A08EA
:1002200081F40A0885F40A0889F40A088DF40A089A
:1002300091F40A08383139353837313190600A0085
:1002400000000000507A0A00FFFFFFFFFFFFFFFFE2
:10025000FFFFFFFF73B5844C236883B1834D28688B
:1002600036F0C4F936F042FA382300930146804B49
:10027000804A81487BF0CAF8286836F0BDF92368C7
:1002800093B17A4D286836F0B1F936F02FFA7B4BEE
:100290000193392300930146754B764A78487BF0E9
:1002A000B5F8286836F0A8F9236893B16F4D28682F
:1002B00036F09CF936F01AFA724B01933A23009308
:1002C00001466B4B6B4A70487BF0A0F8286836F00B
:1002D00093F9236893B1654D286836F087F936F0B5
:1002E00005FA6A4B01933B2300930146604B614A38
:1002F00067487BF08BF8286836F07EF9236883B175
:100300005A4D286836F072F936F0F0F93C23009324
:100310000146574B574A5F487BF078F8286836F01B
:100320006BF92368ABB1514D286836F05FF936F0B0
:10033000DDF9064636F0ECF9436801933E2300935D
:100340004C4A4B4B544831467BF060F8286836F0F5
:1003500053F9236883B1454D286836F047F936F0E4
:10036000C5F9412300930146414B424A4B487BF07B
:100370004DF8286836F040F924F0EAF9236805467C
:1003800058B1002B58D0394E306836F02FF936F07E
:10039000ADF9434B0193432333E083B1334D2868D8
:1003A00036F024F936F0A2F9442300930146304B8D
:1003B000304A3C487BF02AF8286836F01DF923685B
:1003C00083B12A4D286836F011F936F08FF94B23A6
:1003D00000930146264B274A33487BF017F82868DC
:1003E00036F00AF900F0ACF823680546A0B11BB35B
:1003F0001E4E306836F0FAF836F078F9284B019343
:100400004D2300930146294B194A29487AF0FEFFF3
:10041000306836F0F1F80FE013B3144C206836F072
:10042000E5F836F063F94E2300930146104B114A6C
:1004300020487AF0EBFF10E023688BB10B4C20686A
:1004400036F0D4F836F052F9532300930146019563
:10045000074B084A18487AF0D9FF206836F0CCF8E4
:10046000284602B070BD00BF245501102855011068
:10047000DD620908E4620908E962090857630908AE
:10048000336309088763090863630908B2630908CD
:100490008E630908C6630908106409082F640908F7
:1004A00022260A087E640908A8640908D862090897
:1004B00058640908CD640908F36409081FB5174B8F
:1004C0001B6883B1164C206836F090F836F00EF9B0
:1004D000342300930146134B134A14487AF096FFD5
:1004E000206836F089F8082200210DEB02007AF02E
:1004F000D0F94FF47A7102A800F042F918B1012046
:1005000036F000F9EFE703980028ECD0BDF80810AA
:1005100000F05AFD02A800F03BF9E4E72455011071
:10052000285501103865090841650908486509081A
:1005300008B500F039FFBDE8084002F0BFBE00007A
:1005400037B5FFF7F5FF00F0A9F80446B8B11C4B2A
:100550001B68002B31D01B4D286836F047F836F069
:10056000C5F8194B0193552300930146174B184AC0
:1005700018487AF04BFF286836F03EF81DE00090EE
:100580004FF48053144A1549072035F0CDFFA0B928
:100590000B4B1B6883B10B4C206836F027F836F004
:1005A000A5F85B2300930146094B0C4A0C487AF0EE
:1005B0002DFF206836F020F80A4C204603B030BDED
:1005C00024550110285501106C650908BE650908FD
:1005D00038650908586409088982010841650908D5
:1005E00083650908B7E5FFFF30B50C4685B00546C1
:1005F000002842D0002940D0084636F09BF80390EE
:1006000038B3294622467AF01EF904A91C4B21F87A
:10061000084D0022186835F0FDFF054600282CD053
:10062000184B1B688BB1184C206835F0DFFF36F093
:100630005DF8A423009301460195144B144A154814
:100640007AF0E4FE206835F0D7FF039836F0B2F870
:1006500013E00C4B1B6883B10B4C206835F0C6FFD0
:1006600036F044F8AA2300930146084B084A0A488A
:100670007AF0CCFE206835F0BFFF05B030BD00BF7A
:1006800080E900102455011028550110CB65090898
:10069000D1650908D86509080A66090837B500F068
:1006A00051FC0446B0B1144B1B680BB3134D2868C2
:1006B00035F09CFF36F01AF8114B01933523009367
:1006C0000146104B104A11487AF0A0FE286835F018
:1006D00093FF0DE00E4800F0ADFA0E4B0E4A1A6083
:1006E000044628B90A21082035F08EFF0B4B18600C
:1006F000204603B030BD00BF24550110285501101D
:1007000022260A0851660908CB65090858640908B9
:10071000B583010884E90010298C010880E90010E4
:10072000104B13B51B680C469847844214D00E4BEF
:100730001B689BB10D4C206835F058FF35F0D6FF93
:100740005023009301460A4B0A4A0B487AF05EFE9A
:10075000206835F051FF01E0002000E0074802B0BA
:1007600010BD00BF84E90010245501102855011068
:10077000CB650908D16509082B660908A5E5FFFFC7
:10078000024B0A460146186835F060BF80E9001048
:1007900010B5044630B1406820B136F00BF80023A4
:1007A0006360238010BD0000014B186835F0F8BE6F
:1007B00088E9001001284FF00C0001D12DF0BEBED9
:1007C0002DF0DCBE2DE9F04F934C236889B083B146
:1007D000924D286835F00AFF35F088FFC123009359
:1007E00001468F4B8F4A90487AF010FE286835F00A
:1007F00003FF13202DF0E4FE18B9012035F082FF2D
:10080000F7E70023894A022113202DF0EBFE23682D
:1008100083B1824D286835F0E9FE35F067FFC723C4
:10082000009301467E4B7F4A81487AF0EFFD2868AD
:1008300035F0E2FE00227F4910463BF071FC0027B4
:10084000BA460020FFF7B6FF7B4B4FF0FF31186828
:1008500035F098FE0028F4D113202DF0B1FE0646A5
:1008600078B12368002BECD06C4D286835F0BEFEC3
:1008700035F03CFFD02300930146694B694A6F482D
:1008800053E06F4BDFF8D8B1186835F0AFFE6D4B11
:100890006D4AD3F800801E60694BD2F8009018684A
:1008A00016601FFA88F535F0A7FEEB439BB20B22CA
:1008B000002D8DF818208DF81B304FEA15224FEAD5
:1008C00013233146DBF800008DF8198008BF4FF084
:1008D00000098DF81A208DF81C3035F053FE0823DE
:1008E00004AA06A9009630463BF062FC0C202DF0CD
:1008F00025FE4FF0FF31DBF8000035F043FE804667
:100900003046FFF757FFB8F1000F11D02368002BD6
:1009100097D0424D286835F069FE35F0E7FEF123A7
:10092000009301463E4B3F4A48487AF06FFD36E15E
:100930009DF810300A2B14D02368002B81D0374D3E
:10094000286835F053FE35F0D1FE9DF81030019344
:10095000FD2300930146324B324A3D487AF056FD62
:100960001DE19DF811309DF812609DF8148043EA56
:1009700006269DF8133043EA082886EA08024FF657
:10098000FF739A4216D02368002B3FF45AAF234DD1
:10099000286835F02BFE35F0A9FE40F201130093D4
:1009A0000146CDF8088001961D4B1E4A29487AF071
:1009B0002DFDF4E01EB9002D3FF443AF08E140F6F1
:1009C000C4139E4201D89D4219D92368002B3FF4DD
:1009D00038AFDFF84880D8F8000035F007FE35F072
:1009E00085FE4FF4867300930146029501960C4BE9
:1009F0000C4A19487AF00AFDD8F80000D0E0B54258
:100A0000A84638BFB0466DB3002000904346134A55
:100A100049463BF0CDFB2BE0245501102855011031
:100A200070660908766609087D66090875850108FB
:100A3000A8660908E589010888E90010D566090853
:100A400070F3001064F300108CE90010FB660908D5
:100A500021670908576709088167090894E90010A8
:100A600060F300102B4642465F4928463BF064FB8A
:100A70000C202DF063FD4FF0FF31DBF8000035F066
:100A800081FD002800F08F802368C3B1DFF86891F2
:100A9000D9F8000035F0AAFD35F028FE40F21F130A
:100AA00000930146CDF80C80029601954F4B504AB9
:100AB00050487AF0ABFCD9F8000035F09DFD236872
:100AC000A3B14D4D286835F091FD35F00FFE4FF480
:100AD0009073009301460297CDF804A0434B444A1B
:100AE00046487AF093FC286835F086FD0020FFF731
:100AF00061FE23684BB1404D286835F077FD4048D2
:100B00007AF084FC286835F077FD3B4D364E4FF087
:100B10000009C14523680EDA53B1286835F066FD37
:100B200016F8091037487AF071FC286835F064FD32
:100B300009F10109EDE74BB12F4D286835F056FD5D
:100B400031487AF063FC286835F056FD23684BB1D4
:100B5000294D286835F04AFD2C487AF057FC286862
:100B600035F04AFD244E0025236853B1306835F036
:100B70003DFD06AB2348595D7AF048FC306835F0FE
:100B80003BFD0135082DEFD12368002B3FF459AE12
:100B9000194D286835F02AFD1B487AF037FC286883
:100BA00035F02AFD4DE6FFF705FEB9F1000F03D041
:100BB000174B186835F0F4FC164B1B6813B92F4619
:100BC000B2463EE6002EFAD0314607489847F6E78F
:100BD00040F6C4139D423FF6F8AE002DA84638BF3C
:100BE0004FF0000810E700BF94E900107066090894
:100BF00076660908AB67090828550110F5670908EA
:100C000024680908296809088B570A082F68090809
:100C100068F3001090E9001008B541B90846FFF7E5
:100C2000C9FD034B1868BDE8084035F0B9BC08BDE4
:100C300060F3001030B5794B05460FCB87B002AC9E
:100C400084E80F00012035F099FC754B186078B9E5
:100C5000744B1B68002B00F0DC80734C206835F06F
:100C6000C5FC35F043FD714B01934FF4AC73C6E006
:100C7000012035F083FC6E4B186078B9694B1B6816
:100C8000002B00F0C680684C206835F0AFFC35F0D2
:100C90002DFD664B01934FF4AD73B0E0012035F0AC
:100CA0006DFC644B186078B95E4B1B68002B00F03C
:100CB000B0805D4C206835F099FC35F017FD5B4B3A
:100CC000019340F25D139AE05B4B1D6035F08AFCA6
:100CD0005A4D286035F086FC594B18602B687BB95B
:100CE000504B1B68002B00F094804F4C206835F06F
:100CF0007DFC35F0FBFC4D4B019340F263137EE02D
:100D0000214600203BF0D0F9014670B1454B1B68ED
:100D1000002B7ED0444C206835F068FC35F0E6FCB2
:100D2000424B019340F2671369E008223BF0E8F977
:100D3000014670B13B4B1B68002B6AD03A4C2068CF
:100D400035F054FC35F0D2FC384B019340F2691376
:100D500055E013202DF0BEFB70B1324B1B68002B09
:100D600057D0314C206835F041FC35F0BFFC2F4B9B
:100D7000019340F26F1342E0032105202DF0AAFBFE
:100D800070B1284B1B68002B43D0274C206835F0EE
:100D90002DFC35F0ABFC254B019340F273132EE094
:100DA00005202DF0EBFB03210C202DF093FB0446D6
:100DB00068B11C4B1B6863B31B4C206835F016FCF4
:100DC00035F094FC194B01934FF4BC7317E0FFF717
:100DD000F1FC00944FF480531A4A1B49012035F06E
:100DE000A3FBB8B90F4B1B689BB10F4C206835F0C3
:100DF000FDFB35F07BFC0D4B01934FF4BF7300936B
:100E00000146124B124A13487AF000FB206835F075
:100E1000F3FB114C204607B030BD00BF60660908E7
:100E200060F30010245501102855011022260A08ED
:100E300088E9001068F3001090E900106CF30010CE
:100E400070F3001091850108766609086768090843
:100E50007066090858640908C2E5FFFFF7B52C4D14
:100E600007460C4635F042FC286835F0BFFB2FB131
:100E7000631E9BB240F6C312934213D9254B1B68E5
:100E8000002B3BD0244C206835F0B0FB35F02EFC15
:100E9000224B01934FF4C67300930146204B214A25
:100EA000214826E0214E306835F0A0FB204B306809
:100EB0001F60204B1C6035F09FFB05202DF03EFB92
:100EC0001D4B4FF0FF31186835F05CFB0646B0B1A2
:100ED000104B1B6893B1104C206835F087FB35F040
:100EE00005FC4FF4D373009301460E4B134A14488C
:100EF00001967AF08BFA206835F07EFB00240520FD
:100F00002DF03CFB286835F077FB204603B0F0BDA0
:100F10006CF30010245501102855011022260A08F0
:100F20005B680908706609085864090870F30010C6
:100F30008CE9001064F3001068F30010766609086D
:100F400039680908144B13B500241C80134B41F277
:100F500050401C6035F0EEFB114B186020B1114B76
:100F600020461C705C7014E00F4B1B6883B10F4C63
:100F7000206835F03BFB35F0B9FB91230093014627
:100F80000B4B0C4A0C487AF041FA206835F034FBE0
:100F90000A4802B010BD00BF74F3001078F30010CF
:100FA00080F300107CF30010245501102855011027
:100FB000736809087A680908AF680908B8E5FFFF8F
:100FC000006870478088704737B508B1052918D880
:100FD000164B1B683BB3164C206835F007FB35F009
:100FE00085FB144B0193A22300930146124B134A35
:100FF00013487AF00BFA206803B0BDE8304035F0B2
:10100000FBBA85880F4A00239C5AAC4207D1D418FA
:10101000646824B1234603B0BDE830401847083364
:10102000B3F5007FF0D103B030BD00BF24550110EF
:101030002855011022260A08FF680908F9680908DE
:1010400058640908A0DC0010F7B51F4648F20213E7
:10105000994201901446ADF8021012D19AB30422BD
:101060000DEB0201204679F0EEFB02220DEB0201AE
:10107000201D79F0E8FB20463946FFF751FB044676
:1010800021E0BE1DB6B2304635F054FB0546C8B16E
:1010900004220DEB020179F0D6FB02220DEB0201D6
:1010A000281D79F0D0FB24B13A462146A81D79F0DD
:1010B000CAFB31462846FFF733FB0446284635F085
:1010C00079FB00E0014C204603B0F0BDB8E5FFFF1E
:1010D00030B5D1B005464FF480720C4610A80021FF
:1010E00079F0D7FB40220021684679F0D2FB032D2E
:1010F00003D0134824F0B6FD1FE060687AF081FB4E
:10110000B0F5807FF5D8A0687AF07BFB4028F0D856
:101110004FF48072616810A87AF0B5FB4022A16894
:1011200068467AF0B0FB6946002210A803F08CFFF5
:10113000014610B1034824F095FD51B030BD00BF09
:101140002069090830690908022810B50C4601D049
:101150000F4818E0042249680E487AF07FFB10B966
:1011600004F032FA07E0042261680B487AF076FB5B
:1011700040B904F0E3FA014648B10848BDE8104020
:1011800024F070BD0648BDE8104024F06BBD10BDD2
:1011900044690908D5850B08796909085C6909085B
:1011A0002069090870B50C460546FFF709FF064699
:1011B0002846FFF707FFA31FAA1D01469BB2304632
:1011C000BDE87040FFF740BF73B502AC002344F8A0
:1011D000043D0646FFF7F4FE05463046FFF7F2FEF3
:1011E0000423014622462846FFF72EFF08B93BF0AC
:1011F000D9FA02B070BD000070B50446FFF7E0FEFA
:1012000005462046FFF7DEFE064C064620467AF0ED
:10121000F8FA224683B231462846BDE87040FFF70F
:1012200013BF00BF8763090873B502AC002344F8FD
:10123000043D0646FFF7C4FE05463046FFF7C2FEF2
:101240000423014622462846FFF7FEFE02B070BD89
:101250007FB5851D04460DD12C4B1B68002B51D04A
:101260002B4D286835F0C2F935F040FA294B01932F
:101270008B2326E028467AF0C4FAB0F5807F0DD99A
:10128000224B1B68002B3DD0214D286835F0AEF96C
:1012900035F02CFA1F4B01938C2312E004F5837672
:1012A00030467AF0AEFA402816D9184B1B684BB37B
:1012B000174D286835F09AF935F018FA154B019357
:1012C0008D2300930146144B144A15487AF09EF87A
:1012D000286835F091F915E000223146284603F0E0
:1012E000B3FE78B903902046FFF76AFE0546204614
:1012F000FFF768FE0423014603AA2846FFF7A4FE71
:1013000004B070BD4FF0FF330393ECE72455011098
:101310002855011022260A08EF6909087E69090884
:101320005864090807B502AA012302F8010D48F222
:1013300002010020FFF788FE03B05DF804FB37B51B
:10134000044604F041F908B9019002E04FF0FF3380
:1013500001932046FFF734FE05462046FFF732FE94
:10136000042301460DEB03022846FFF76DFE03B090
:1013700030BD37B5044604F0E1F908B9019002E048
:101380004FF0FF3301932046FFF71AFE0546204633
:10139000FFF718FE042301460DEB03022846FFF772
:1013A00053FE03B030BD00000221014824F03ABCD6
:1013B000086909081FB5002301388DF80F3003288C
:1013C0005CD8DFE800F002182E443E4B1B6883B166
:1013D0003D4C206835F00AF935F088F9DB2300939D
:1013E00001463A4B3A4A3B487AF010F8206835F00B
:1013F00003F9022340E0334B1B6883B1324C206871
:1014000035F0F4F835F072F9E023009301462F4BE4
:101410002F4A314879F0FAFF206835F0EDF80123C2
:101420002AE0284B1B6883B1274C206835F0DEF892
:1014300035F05CF9E52300930146244B244A274804
:1014400079F0E4FF206835F0D7F8052314E01D4B50
:101450001B6883B11C4C206835F0C8F835F046F99C
:10146000EA2300930146194B194A1D4879F0CEFF33
:10147000206835F0C1F804238DF80F309DF80F3047
:10148000F3B1104B1B689BB10F4C206835F0AEF8E0
:1014900035F02CF99DF80F300193F42300930146A9
:1014A0000A4B0B4A0F4879F0B1FF206835F0A4F8D9
:1014B00001230DF10F0248F201110020FFF7C4FDD6
:1014C00004B010BD2455011028550110BF6A090849
:1014D000C66A0908CE6A0908EA6A0908086B090899
:1014E000236B0908406B09082DE9F04F7A4B1A6805
:1014F0009BB080460D46994692B1784C206835F0F5
:1015000075F835F0F3F8632300930146CDF80480B5
:10151000734B744A744879F079FF206835F06CF8A1
:1015200004356E4F2C460026464531DAD9F8003096
:101530005BB3386835F05AF835F0D8F894F82630AF
:101540000B9394F825300A9394F82430099394F877
:101550002330089394F82230079394F821300693AF
:1015600094F82C30059354F8043C0493A36A039335
:1015700069230093014602940196594B594A5B48EE
:1015800079F044FF386835F037F801363434CBE76A
:10159000B8F10A0F18DDD9F80030002B00F0958063
:1015A0004E4C206835F022F835F0A0F870220A235E
:1015B0008DE80C0001464A4B4A4A4D4879F026FF17
:1015C000206835F019F880E0B8F1000F45DD08EB30
:1015D000480636010136B6B2304635F0ABF804465F
:1015E00038B307464FF0000A07F8058B4FF0300B71
:1015F00029462122384679F026F90BFB0A43AA6ACC
:10160000DA6255F8042CC3F8012095F82C3087F8DD
:101610002B3005F1210107F1210006220AF1010A10
:1016200079F011F9C24507F1300705F13405DFDB28
:101630001DE0D9F8003083B1284C206834F0D6FF83
:1016400035F054F8912300930146254B254A29484B
:1016500079F0DCFE206834F0CFFF312200210DA8A4
:1016600079F017F900238DF8343031260DAC22487B
:10167000FFF7A6FC05462048FFF7A4FC33460146C9
:1016800022462846FFF7E0FC0646A0B1D9F8003014
:101690008BB1124D286834F0A9FF35F027F8A32349
:1016A0000093014601960E4B0E4A144879F0AEFEA7
:1016B000286834F0A1FF124B00221A700DAB9C4237
:1016C00006D0204635F076F802E04FF00A087EE7B3
:1016D0001BB0BDE8F08F00BF245501102855011044
:1016E000BF6A0908C66A0908626B0908836B0908A2
:1016F000E16B0908036C0908CCF30010276C09089A
:1017000018F400102DE9F0434E4E4F4DDFF868817C
:10171000044689B00021306834F034FF2B68A71DDF
:101720001BB3DFF84491D9F8000034F05FFF34F0C8
:10173000DDFF98F80010454A454B0297002918BF75
:101740001346D4F8092104920193D4F80521039299
:1017500040F21A23009301463E4B3F4A3F4879F03E
:1017600055FED9F8000034F047FF98F80030D4F85F
:101770000921D4F8051123B1394B384636F0FCFA6B
:1017800003E0374B384636F0D5FA00283ED1D4F87E
:101790000911D4F8053130686431594301F59C5181
:1017A000083134F0EFFE88BB2E4E2C272046FFF781
:1017B00007FC80462046FFF705FC324601463B46C3
:1017C0004046FFF741FC0646A0B12B6893B1264D79
:1017D000286834F00BFF34F089FF40F23A2300937D
:1017E000014601961B4B1C4A204879F00FFE2868E1
:1017F00034F002FF14B1204634F0DCFF1C4B002013
:10180000187034F0A9FE09B0BDE8F0832B688BB1E5
:10181000154E306834F0EAFE34F068FF40F22D23B4
:10182000009301460B4B0C4A124879F0EFFD3068EB
:1018300034F0E2FE002306934FF0FF3307930827AE
:1018400006AEB3E7C8F300102455011038270A0884
:1018500022260A08BF6A0908C66A0908596C0908DD
:10186000499601089CF3001028550110B66C090830
:1018700020F40010906C090819F400102DE9F043D1
:101880001A4BDFF87C90DFF87C800A29A8BF0A2178
:1018900085B00F461960064600241D46BC421EDA7C
:1018A000D9F80030ABB1D8F8000034F09FFE34F026
:1018B0001DFF3368029340F20A230093014601940E
:1018C0000B4B0C4A0C4879F0A1FDD8F8000034F01D
:1018D00093FE013456F8043B45F82430DEE7074B0D
:1018E000186805B0BDE8F04334F05ABE9CF3001010
:1018F000BF6A0908C66A0908E56C0908C8F3001040
:1019000024550110285501102DE9FF41354D0822BD
:1019100000210DEB020078F0BCFF4FF0FF3202A96E
:10192000286834F093FE07460028F0D1039C002C71
:10193000EDD02689DDF808801C36B6B2304634F08A
:10194000F9FE0546D8B1C0F80680102221460A30BB
:1019500078F079FF2289616805F11C0078F073FF47
:1019600023896B83204635F061FC33462A4648F2D2
:1019700002113846FFF768FB0646C8B92EE01A4B3D
:101980001B688BB1194D286834F030FE34F0AEFE80
:1019900040F2CA2300930146154B164A164879F0C7
:1019A00035FD286834F028FE204635F03FFCADE7D1
:1019B0000D4B1B6893B10D4C206834F017FE34F0CA
:1019C00095FE40F2D623009301460196084B094A42
:1019D0000A4879F01BFD206834F00EFE284634F0EA
:1019E000E9FE93E794F300102455011028550110E7
:1019F000BF6A0908C66A09080B6D0908276C09083F
:101A0000022810B50C4617D149680E4879F0CCFE73
:101A100030B90D4824F026F9BDE8104045F04EBD20
:101A200061680A4879F0C0FE58B9094824F01AF9EB
:101A3000BDE8104045F03CBC0648BDE8104024F02D
:101A400011B910BDD5850B083F6D090879690908E2
:101A50004C6D0908566D090870B5344C8AB00023E6
:101A60000893ADF824302368064693B1304D2868BA
:101A700034F0BCFD34F03AFE2E4B01933523009335
:101A800001462D4B2D4A2E4879F0C0FC286834F0D1
:101A9000B3FD08A844F074FE236813B3244D2868EE
:101AA00034F0A4FD34F022FE9DF8253006939DF815
:101AB000243005939DF8233004939DF8223003933E
:101AC0009DF8213002939DF8203001933923009333
:101AD0000146194B194A1B4879F098FC286834F0E4
:101AE0008BFD3046FFF76CFA05463046FFF76AFA81
:101AF0000623014608AA2846FFF7A6FA054698B12C
:101B000023688BB10A4C206834F070FD34F0EEFD90
:101B10004023009301460195074B084A0A4879F093
:101B200075FC206834F068FD0AB070BD24550110C2
:101B300028550110746A0908BF6A0908C66A0908AD
:101B4000676D09087E6D0908276C090870B5344C6B
:101B50008AB000230893ADF824302368064693B179
:101B6000304D286834F042FD34F0C0FD2E4B019317
:101B70004923009301462D4B2D4A2E4879F046FC0F
:101B8000286834F039FD08A844F0FCFD236813B33D
:101B9000244D286834F02AFD34F0A8FD9DF8253046
:101BA00006939DF8243005939DF8233004939DF807
:101BB000223003939DF8213002939DF82030019349
:101BC0004D2300930146194B194A1B4879F01EFC1E
:101BD000286834F011FD3046FFF7F2F9054630462B
:101BE000FFF7F0F90623014608AA2846FFF72CFA6A
:101BF000054698B123688BB10A4C206834F0F6FC96
:101C000034F074FD5423009301460195074B084AB4
:101C10000A4879F0FBFB206834F0EEFC0AB070BD96
:101C20002455011028550110AA6A0908BF6A09083D
:101C3000C66A0908676D0908B46D0908276C0908A8
:101C4000F7B5374D2B68044693B1364E306834F003
:101C5000CDFC34F04BFD344B0193B323009301468C
:101C6000324B334A334879F0D1FB306834F0C4FC4E
:101C7000314F3B7803F0FF024BBB3049104622F056
:101C800035FF064618BB0123214606222C483B702F
:101C900078F0D9FD2B6884F8266006348BB1214D8D
:101CA000286834F0A3FC34F021FDC32300930146DF
:101CB00001941E4B1E4A234879F0A8FB286834F093
:101CC0009BFC204603B0BDE8F04041F04FBA2046EF
:101CD000FFF776F906462046FFF774F90023014620
:101CE0001A463046FFF7B0F90446B0B12B68A3B1ED
:101CF0000C4D286834F07AFC34F0F8FCCE230093C5
:101D000001460194094B0A4A0F4879F07FFB286885
:101D100003B0BDE8F04034F06FBC03B0F0BD00BFCD
:101D200024550110285501109B6A0908BF6A09084B
:101D3000C66A0908676D090818F40010B592010811
:101D4000CCF30010E96D0908276C09082DE9F04172
:101D5000474D2B6886B004469BB1464E306834F040
:101D600045FC34F0C3FC444B01934FF4867300935D
:101D70000146424B424A434879F048FB306834F010
:101D80003BFC94F86C600EB104F16E0694F86D7033
:101D90000FB104F176072B68CBB1DFF8D880D8F803
:101DA000000034F023FC34F0A1FCA31D04F1270251
:101DB000019340F219130292009301462F4B304ACF
:101DC000314879F023FBD8F8000034F015FC0022EC
:101DD0002E49012022F08AFE00BB3346A26E0097F6
:101DE00004F12701A01D45F02FF92B68064693B199
:101DF000204F386834F0FAFB34F078FC40F21F13BF
:101E00000093014601961D4B1D4A214879F0FEFAC8
:101E1000386834F0F1FB0EB9059602E04FF0FF335D
:101E200005932046FFF7CCF806462046FFF7CAF890
:101E30000423014605AA3046FFF706F90646A0B17D
:101E40002B6893B10B4C206834F0D0FB34F04EFC7F
:101E50004FF49873009301460196084B084A0D48C9
:101E600079F0D4FA206834F0C7FB06B0BDE8F08101
:101E70002455011028550110E4730908BF6A0908A8
:101E8000C66A0908676D09080B6E09088191010887
:101E9000326E0908276C0908F0B52E4C236885B00E
:101EA00007469BB12C4D286834F0A0FB34F01EFC93
:101EB0002A4B019340F2391300930146284B294ADB
:101EC000294879F0A3FA286834F096FB41F04CF9E0
:101ED0002368054693B1204E306834F087FB34F018
:101EE00005FC40F23D130093014601951C4B1D4A31
:101EF0001E4879F08BFA306834F07EFB0DB90395FB
:101F000002E04FF0FF3303933846FFF759F80546D8
:101F10003846FFF757F80423014603AA2846FFF77F
:101F200093F80546A0B1236893B10B4C206834F0B8
:101F30005DFB34F0DBFB4FF4A67300930146019583
:101F4000074B084A0A4879F061FA206834F054FBDC
:101F500005B0F0BD2455011028550110AE730908D5
:101F6000BF6A0908C66A0908676D0908596E090839
:101F7000276C0908F0B5494D2B688BB004469BB11E
:101F8000474E306834F032FB34F0B0FB454B0193E0
:101F90004FF4AB7300930146434B444A444879F0F5
:101FA00035FA306834F028FB2B682BB33C4E306890
:101FB00034F01CFB34F09AFB04F19A02079204F10E
:101FC0008A02069204F17A02059204F16A020492EE
:101FD000D4F866200392A31D04F1260201934FF466
:101FE000AE730292009301462F4B304A314879F08C
:101FF0000DFA306834F000FB00222F49012022F056
:1020000075FD08BB04F16A03D4F8662004F12601CB
:10201000A01D46F05DF82B68064693B1204F386846
:1020200034F0E4FA34F062FB40F2611300930146AD
:1020300001961D4B1D4A214879F0E8F9386834F0C3
:10204000DBFA0EB9099602E04FF0FF330993204600
:10205000FEF7B6FF06462046FEF7B4FF042301460E
:1020600009AA3046FEF7F0FF0646A0B12B6893B1EF
:102070000B4C206834F0BAFA34F038FB4FF4B973E3
:10208000009301460196084B084A0D4879F0BEF9C5
:10209000206834F0B1FA0BB0F0BD00BF2455011038
:1020A0002855011062740908BF6A0908C66A090840
:1020B000676D09087F6E090881910108CD6E0908D6
:1020C000276C0908F0B52E4C236885B007469BB1F4
:1020D0002C4D286834F08AFA34F008FB2A4B01931F
:1020E00040F27B1300930146284B294A294879F096
:1020F0008DF9286834F080FA46F0C0F82368054668
:1021000093B1204E306834F071FA34F0EFFA40F2B7
:102110007F130093014601951C4B1D4A1E4879F020
:1021200075F9306834F068FA0DB9039502E04FF0A4
:10213000FF3303933846FEF743FF05463846FEF764
:1021400041FF0423014603AA2846FEF77DFF05460A
:10215000A0B1236893B10B4C206834F047FA34F0F7
:10216000C5FA4FF4C773009301460195074B084A1F
:102170000A4879F04BF9206834F03EFA05B0F0BD1A
:102180002455011028550110BD740908BF6A0908BB
:10219000C66A0908676D0908F56E0908276C090801
:1021A0002DE9F041334C8679236896B08046A3B17F
:1021B000314D286834F01AFA34F098FA2F4B019315
:1021C0004FF4CD730093014602962D4B2D4A2E48B5
:1021D00079F01CF9286834F00FFA06AD314628462C
:1021E00040F0DAFF2368064693B1234F386834F095
:1021F000FDF934F07BFA4FF4CF730093014601955B
:102200001F4B204A214879F001F9386834F0F4F97D
:102210004FF0FF33059336B9284637F09BFA013863
:10222000033098BF05964046FEF7CAFE0546404675
:10223000FEF7C8FE4423014605AA2846FEF704FF20
:102240000546A0B1236893B10B4C206834F0CEF959
:1022500034F04CFA40F2AF13009301460195084B5D
:10226000084A0B4879F0D2F8206834F0C5F916B066
:10227000BDE8F0812455011028550110036A0908B2
:10228000BF6A0908C66A09081C6F09083D6F09087A
:10229000276C090870B5244B1A68A2B005461E4683
:1022A0009AB1224C206834F0A1F934F01FFA204B87
:1022B00001934FF4DC73009301461E4B1E4A1F48E6
:1022C00079F0A4F8206834F097F904A844F0D8FA1B
:1022D00008B9039002E04FF0FF3303932846FEF75E
:1022E0006FFE04462846FEF76DFE7C23014603AAD6
:1022F0002046FEF7A9FE0546A0B1336893B10B4C0A
:10230000206834F073F934F0F1F940F2CB13009304
:1023100001460195074B084A094879F077F820688B
:1023200034F06AF922B070BD24550110285501100F
:10233000376A0908BF6A0908C66A0908676D09088B
:10234000276C0908F0B5234B1A6885B005461E4670
:102350009AB1214C206834F049F934F0C7F91F4B89
:1023600001934FF4EA73009301461D4B1D4A1E482A
:1023700079F04CF8206834F03FF904AC40F008FFE5
:102380000023284644F8043DFEF71AFE0746284677
:10239000FEF718FE0423014622463846FEF754FE97
:1023A0000546A0B1336893B10B4C206834F01EF998
:1023B00034F09CF940F2DF13009301460195084B7D
:1023C000084A0A4879F022F8206834F015F905B077
:1023D000F0BD00BF2455011028550110646A09089A
:1023E000BF6A0908C66A0908676D0908276C0908E9
:1023F000F0B5234B1A6885B005461E469AB1214CAC
:10240000206834F0F3F834F071F91F4B01934FF466
:10241000F473009301461D4B1D4A1E4878F0F6FFE9
:10242000206834F0E9F804AC40F0B4FE00232846FC
:1024300044F8043DFEF7C4FD07462846FEF7C2FDFA
:102440000423014622463846FEF7FEFD0546A0B1AC
:10245000336893B10B4C206834F0C8F834F046F977
:1024600040F2F313009301460195084B084A0A48CD
:1024700078F0CCFF206834F0BFF805B0F0BD00BFA5
:10248000245501102855011051740908BF6A090824
:10249000C66A0908676D0908276C09082DE9F04329
:1024A000624E336885B0054688469BB1604C206813
:1024B00034F09CF834F01AF95E4B01934FF4147326
:1024C000009301465C4B5D4A5D4878F09FFF2068B1
:1024D00034F092F85B4F3B78ABB13368002B70D08F
:1024E000534C206834F082F834F000F94FF415733F
:1024F00000930146504B514A534878F087FF2068BB
:1025000034F07AF85DE0DFF85C91D9F80030012012
:102510003870C3B934F032F80446C9F8000090B9F5
:102520003368002B4DD0DFF80881D8F8000034F074
:102530005DF834F0DBF840F25F23009301463E4B38
:102540003E4A424824E0404634F0F4F8044670B174
:102550004246294678F077F900944FF480633C4A6C
:102560003C49072033F0E0FF00285BD117E03368D7
:102570003BB3DFF8BC80D8F8000034F037F834F013
:10258000B5F84FF41B73009301462B4B2B4A32488E
:1025900078F03CFFD8F8000034F02EF812E03368F1
:1025A00083B1DFF88C80D8F8000034F01FF834F0E5
:1025B0009DF84FF41D73009301461F4B1F4A274897
:1025C000E6E700240023029328464FF0FF330393ED
:1025D000FEF7F6FC80462846FEF7F4FC0823014689
:1025E0000DEB03024046FEF72FFD0546A0B1336810
:1025F00093B10F4E306833F0F9FF34F077F840F2C2
:1026000082230093014601950B4B0C4A144878F045
:10261000FDFE306833F0F0FF14B1204634F0CAF804
:1026200000233B7005B0BDE8F08300BF24550110C6
:1026300028550110276A0908BF6A0908C66A0908EF
:10264000676D090820F400105C6F0908856F0908A0
:10265000D194010896280A08B76F0908F26F090893
:10266000B66C0908C8F30010024B00221A70FFF77D
:1026700015BF00BF19F40010024B01221A70FFF7BA
:102680000DBF00BF19F40010F0B5384C236885B0B9
:102690000546A3B1364E306833F0A8FF34F026F873
:1026A000D5F8063001934FF43F7300930146314B48
:1026B000314A324878F0AAFE306833F09DFFD5F8F1
:1026C00006302F4E2F4F012B16D1336823B914211A
:1026D000082033F099FF30603B684BB900932A4AD9
:1026E0002A494FF40063032033F01EFF254B186086
:1026F00001202AF0B7FF0FE000202AF0B3FF38686E
:1027000018B133F029FF00233B60306820B133F06B
:10271000A7FF1B4B00221A6004AE0023284646F890
:10272000043DFEF74DFC07462846FEF74BFC04230C
:10273000014632463846FEF787FC0546A0B12368BD
:1027400093B10B4C206833F051FF33F0CFFF40F2D0
:102750002233009301460195064B074A0C4878F056
:1027600055FE206833F048FF05B0F0BD2455011038
:1027700028550110BF6A0908C66A090829700908A6
:1027800094F300101CF40010D5960108507009084D
:10279000276C09087FB52B4C236806469BB12A4D50
:1027A000286833F023FF33F0A1FF284B019340F258
:1027B0002B3300930146264B264A274878F026FE05
:1027C000286833F019FF2AF057FF236803909BB164
:1027D0001D4D286833F00AFF33F088FF039B0193F7
:1027E00040F22F3300930146194B1A4A1B4878F0E8
:1027F0000DFE286833F000FF3046FEF7E1FB05468A
:102800003046FEF7DFFB0423014603AA2846FEF705
:102810001BFC0546A0B1236893B10B4C206833F034
:10282000E5FE33F063FF40F2363300930146019535
:10283000074B084A0A4878F0E9FD206833F0DCFECF
:1028400004B070BD24550110285501104F6A0908C5
:10285000BF6A0908C66A0908676D09085B7009083C
:10286000276C090830B585B004462AF005FF012819
:102870001AD03C4B1B689BB13B4D286833F0B6FE29
:1028800033F034FF394B019340F242330093014659
:10289000374B384A384878F0B9FD286833F0ACFE39
:1028A0004FF0FF33039336E0D4F8060001281BD91C
:1028B0004FF0FF3303932B4B1B6863B32A4D2868FB
:1028C00033F094FE33F012FFD4F8063001934FF446
:1028D000527300930146274B284A294878F096FD09
:1028E000286833F089FE16E00023A372E372237395
:1028F000637304F11C03C4F80E30638BA3826382FC
:102900004FF0FF332376637604F10A012AF0BAFE12
:102910000028C5D103902046FEF752FB054620460D
:10292000FEF750FB0423014603AA2846FEF78CFB62
:102930000546A8B10B4B1B6893B10B4C206833F0D4
:1029400055FE33F0D3FE40F2663300930146019505
:10295000084B0A4A0B4878F059FD206833F04CFECA
:1029600005B030BD245501102855011082700908AA
:10297000866A0908BF6A090858640908C66A09080E
:10298000A8700908276C090830B585B001B3039118
:10299000124B04A9002241F8080D186833F03AFEE2
:1029A0000446C0B10E4B1B6893B10E4D286833F03E
:1029B0001DFE33F09BFE40F28B33009301460194E1
:1029C000094B0A4A0A4878F021FD286833F014FEC2
:1029D0004FF0FF30FFE705B030BD00BF94F30010AB
:1029E0002455011028550110BF6A0908C66A090854
:1029F000E07009082DE9F0479F4E336886B0054620
:102A00009BB19E4C206833F0F1FD33F06FFE9C4B80
:102A1000019340F2EA33009301469A4B9A4A9B484D
:102A200078F0F4FC206833F0E7FDAB1D15D1336876
:102A3000002B00F01981914C206833F0D7FD33F062
:102A400055FE934B019340F2ED3300930146914BB9
:102A50008C4A914878F0DAFCDBE0B5F80730002BBF
:102A600000F0C5803368CBB1844C206833F0BEFDE4
:102A700033F03CFE05F109030393B5F807300293E8
:102A8000AB79019340F2F133009301467D4B7E4ACE
:102A9000824878F0BBFC206833F0AEFDAF79032F9D
:102AA00007D815F10909B5F8074001D00CB113E0BA
:102AB00094B13368002B7FD0704C206833F096FDC2
:102AC00033F014FE724B019340F2BA330093014687
:102AD000734B6C4A70481EE0012F22D0022F03D1A5
:102AE000704F57F8080F1FE0032F03D16D4F57F8B1
:102AF0000C0F19E03368002B5ED0604C206833F077
:102B000075FD33F0F3FD40F2CA33009301465D4B8F
:102B10005D4A6548019778F079FC206833F06CFDD8
:102B20004AE0604F57F8040F18B133F043FE00231A
:102B30003B60002C43D004F10108404633F0FAFD1D
:102B4000824660BB33689BB14C4C206833F04EFD2D
:102B500033F0CCFD4E4B019340F2D9330093014644
:102B60004F4B484A4C4878F051FC206833F044FD04
:102B700033681BB3414C206833F038FD33F0B6FDA9
:102B800040F2D93300930146CDF804803D4B3E4AD4
:102B9000464878F03BFC206833F02EFD0EE04246BC
:102BA000002177F076FE22464946504677F04BFEEC
:102BB0000024C7F800A002E03D4C00E03D4C336823
:102BC0005BB32E4F386833F011FD33F08FFD029464
:102BD000AB79019340F2F33300930146294B2A4A23
:102BE000354878F013FC386833F006FD15E033689B
:102BF000002B39D0214C206833F0F8FC33F076FDFF
:102C000040F2F733009301461E4B1F4A2B4878F0E1
:102C1000FDFB206833F0F0FC26E02CBB0594284631
:102C2000FEF7CEF904462846FEF7CCF90423014608
:102C300005AA2046FEF708FA0546C8B13368BBB1BD
:102C40000E4C206833F0D2FC33F050FD40F20A43C2
:102C50000093014601950B4B0B4A194878F0D6FBBF
:102C6000206833F0C9FC03E04FF0FF330593D6E74B
:102C700006B0BDE8F08700BF2455011028550110AB
:102C8000F6730908BF6A0908C66A0908676D09086A
:102C900022260A08247409085864090809710908D9
:102CA000C373090884F300103371090867710908B8
:102CB000CFE5FFFFB8E5FFFF98710908C17109086A
:102CC000276C09082DE9F0436E4D2B6889B0044646
:102CD0009BB16D4E306833F089FC33F007FD6B4BD0
:102CE000019340F2144300930146694B694A6A48D4
:102CF00078F08CFB306833F07FFC14F1060913D1B7
:102D00002B68002B00F0B6805F4E306833F06EFC0D
:102D100033F0ECFC614B019340F217430093014602
:102D20005F4B5B4A5F4878E094F886305E4E5F4FB9
:102D3000012B03BF5E4B94F887201A700023336089
:102D400094F89430012B0AD1DFF87C81402204F101
:102D50009501404677F077FDC7F8008001E0002339
:102D60003B602B68FBB1DFF82081D8F8000033F01E
:102D70003DFC33F0BBFC94F88730049304F1460328
:102D8000039304F12603029340F22E43009301467D
:102D9000CDF804903E4B3F4A464878F037FBD8F8D0
:102DA000000033F029FC00224349012021F09EFE5F
:102DB000804600BB3B680093336804F1460204F18F
:102DC0002601484644F0D0FA2B6806465BB32E4FE6
:102DD000386833F00BFC33F089FC40F23343009346
:102DE000014601962A4B2B4A344878F00FFB38688D
:102DF00033F002FC17E02B68002B3BD0224E3068EA
:102E000033F0F4FB33F072FC40F237430093014699
:102E10001F4B204A2A48CDF8048078F0F7FA306832
:102E200033F0EAFB26E02EBB07962046FEF7C8F8F3
:102E300006462046FEF7C6F80423014607AA304698
:102E4000FEF702F90646C8B12B68BBB10E4C2068EC
:102E500033F0CCFB33F04AFC40F249430093014687
:102E600001960B4B0B4A174878F0D0FA206833F0E4
:102E7000C3FB03E04FF0FF330793D6E709B0BDE88B
:102E8000F08300BF24550110285501103B74090838
:102E9000BF6A0908C66A0908676D090822260A0878
:102EA000797409085864090898F3001014F40010A4
:102EB00084F30010EE710908819101082772090856
:102EC00053720908276C0908D2F30010F0B53E4C84
:102ED000236885B007469BB13C4D286833F086FBDC
:102EE00033F004FC3A4B019340F252430093014605
:102EF000384B394A394878F089FA286833F07CFB36
:102F000000223749012021F0F1FD0646C0B944F006
:102F1000D5FA2368054653B32C4E306833F066FB70
:102F200033F0E4FB40F25943009301460195294BED
:102F3000294A2C4878F06AFA306833F05DFB16E0D5
:102F40002368002B3AD0214D286833F04FFB33F033
:102F5000CDFB40F25D430093014601961D4B1E4A96
:102F6000214878F053FA286833F046FB26E02DBB61
:102F700003953846FEF724F805463846FEF722F852
:102F80000423014603AA2846FEF75EF80546C8B1A9
:102F90002368BBB10D4C206833F028FB33F0A6FB4F
:102FA00040F26E430093014601950A4B0A4A0F48CE
:102FB00078F02CFA206833F01FFB03E04FF0FF336A
:102FC0000393D6E705B0F0BD245501102855011034
:102FD000A7740908BF6A0908C66A0908676D090865
:102FE00081910108AE72090853720908276C09081B
:102FF000F0B52E4C236885B007469BB12C4D286850
:1030000033F0F4FA33F072FB2A4B019340F277432A
:1030100000930146284B294A294878F0F7F9286897
:1030200033F0EAFA44F044F92368054693B1204EA0
:10303000306833F0DBFA33F059FB40F27B43009306
:10304000014601951C4B1D4A1E4878F0DFF9306897
:1030500033F0D2FA0DB9039502E04FF0FF3303933A
:103060003846FDF7ADFF05463846FDF7ABFF0423B4
:10307000014603AA2846FDF7E7FF0546A0B12368ED
:1030800093B10B4C206833F0B1FA33F02FFB40F2D0
:103090008A43009301460195074B084A0A4878F095
:1030A000B5F9206833F0A8FA05B0F0BD2455011039
:1030B00028550110146A0908BF6A0908C66A090878
:1030C000676D0908DA720908276C090870B5304D78
:1030D0002B6886B00446BBB12E4E306833F086FABA
:1030E00033F004FBE3790393A37902932A4B019312
:1030F00040F2954300930146284B294A294878F02D
:1031000085F9306833F078FAE179A07944F07AFDF6
:103110002B688DF81400A3B11E4E306833F066FAA8
:1031200033F0E4FA9DF81430019340F29943009390
:1031300001461A4B1A4A1C4878F068F9306833F097
:103140005BFA2046FDF73CFF06462046FDF73AFFB6
:103150000123014605AA3046FDF776FF0646A0B1D9
:103160002B6893B10B4C206833F040FA33F0BEFA71
:103170004FF49463009301460196084B084A0B48AC
:1031800078F044F9206833F037FA06B070BD00BF1C
:1031900024550110285501108F740908BF6A0908C9
:1031A000C66A0908037309082C730908276C090803
:1031B0002DE9F041394D96B004462E2200210AA88F
:1031C00077F067FB2B68BBB1354E306833F00EFAF1
:1031D00033F08CFAE3790393A3790293314B019393
:1031E00040F2AC43009301462F4B304A304878F010
:1031F0000DF9306833F000FAE279A17906A844F0BD
:10320000E5FC2B680590EBB1254E306833F0EEF904
:1032100033F06CFA2E2307460AAA06A90A20DDF825
:10322000148036F0A5FA40F2B14302900093CDF835
:1032300004801D4B1D4A1F48394678F0E7F8306876
:1032400033F0DAF916AE0023204646F8443DFDF788
:10325000B7FE07462046FDF7B5FE32460146142369
:103260003846FDF7F1FE0646A0B12B6893B10C4C31
:10327000206833F0BBF933F039FA40F2B9430093D8
:1032800001460196084B094A0B4878F0BFF82068C0
:1032900033F0B2F916B0BDE8F08100BF245501103B
:1032A000285501100D740908BF6A0908C66A090883
:1032B0000373090852730908276C090801210148A2
:1032C00022F0B0BCD8730908144B1A7810B51AB1A3
:1032D0000020134A142110E001211970114B4FF006
:1032E000FF3003F1C80143F8040C1A705A609A6069
:1032F000DA6014338B42F6D1EAE701FB00F39C5805
:10330000002C04DA064A4FF0FF31D15010BD0130D5
:103310000A28F2D14FF0FF3010BD00BFEC040110BD
:10332000240401102804011010B5074A00231421B9
:1033300001FB03F4A458844204D001330A2BF7D1D3
:103340004FF0FF33184610BD240401102DE9F04161
:1033500004468AB000F11A0600F10A0800F11207CB
:1033600004F12203D0F8060000933A463346414662
:1033700036F0B8F90AAD082245F81C0D414604A8FC
:1033800077F061FA0822394606A877F05CFA3146F0
:10339000082208A877F057FA2046FDF711FE0646E6
:1033A0002046FDF70FFE1C2301462A463046FDF756
:1033B0004BFE14B1204633F0FDF9002033F0CCF879
:1033C0000AB0BDE8F08137B54FF0FF330446002561
:1033D00006308DE8280036F0B3F928B103691B6880
:1033E00013B11B68019300952046FDF7E9FD0546E2
:1033F0002046FDF7E7FD082301466A462846FDF70B
:1034000023FE14B1204633F0D5F9002033F0A4F8A0
:1034100003B030BD70B5092886B016461D4618D9D0
:103420001C4B1B68002B30D01B4C206833F0DEF89F
:1034300033F05CF9194B019340F21E4300930146AF
:10344000174B184A184877F0E1FF206833F0D4F89A
:103450001BE0164B0391142404FB0034284602940D
:10346000ADF8105033F066F9059080B12A46314628
:1034700077F0E9F9022202A9E06833F0CBF80C4BAF
:10348000002814BF1846002002E00A4800E00A485D
:1034900006B070BD245501102855011022260A08D7
:1034A00000750908D3740908586409082404011038
:1034B000B7E5FFFFCAE5FFFFB8E5FFFF0928F8B54C
:1034C000044629D8154D142606FB0056B06818B1DD
:1034D00020F02EF90023B36014266643A859002873
:1034E00005DB36F029F90D4B4FF0FF329A511426C7
:1034F00006FB04560027F068377110B133F0B0F8BE
:10350000F760142303FB0454206928B100232361CE
:10351000BDE8F84033F020B8F8BD00BF2404011026
:103520002DE9F04FBF4FC04E99B00546B846102266
:10353000002106A877F0ADF94FF0FF3206A9E86840
:1035400033F084F80028F7D1079B122B00F2BB82DE
:10355000DFE813F013009700720048001401200107
:103560004A017201B401BC018800AF00B700380203
:10357000C2013E02490282029902099BD3F80E2041
:10358000D3F80A10D3F8060036F09EF800280A9007
:103590001DDB18AC069A42F21073106044F8283D07
:1035A0004FF00409234641F2060240F6FF71CDF8C0
:1035B000009036F08BF82346CDF8009041F20502DA
:1035C00040F6FF710A9836F081F8002400E0974C2D
:1035D0000998FDF7F5FC81460998FDF7F3FC0423F3
:1035E0000AAAE4E1099CD4F80E20032A04F1160388
:1035F0000ED1194608220EA877F025F90823D4F831
:103600000E20D4F80A10D4F8060000930EAB06E0A2
:10361000D4F80A10D4F80600D4F81240009436F01A
:1036200055F80A900998FDF7CBFC04460998FDF778
:10363000C9FC04230AAA42E2099BD3F80E20D3F85E
:103640000A10D3F806000FAB009310AB36F040F829
:103650000E900998FDF7B4FC04460998FDF7B2FCFA
:1036600018232BE2099C1C2204F10A010EA877F012
:10367000EAF8D4F82620D4F806000EA936F02AF885
:10368000CFE7099CE37A0A2B04F10A0105D11C2239
:103690000EA877F0D8F80EA904E010220AA877F057
:1036A000D2F80AA9D4F82620D4F8060036F014F887
:1036B0008FE0099BD3F80A10D3F8060036F00EF815
:1036C0008FE1099B16AA0FA9D3F8060036F008F877
:1036D00000280E9049DB18AC42F2107344F8383DD4
:1036E0004FF00409CDF80090234641F2060240F65F
:1036F000FF7135F0EBFFCDF80090234641F2050253
:1037000040F6FF710E9835F0E1FFDDF83890B9F121
:10371000000F2ADBFFF7D8FD041EC0F2E681142358
:1037200003FB0473186908B132F01AFF032110205B
:103730004FF0140A32F068FF0AFB04FA08EB0A0B98
:10374000CBF80C00002800F0D081CDF800B04FF489
:103750000063374A3749072032F0E6FECBF8100005
:10376000002800F0C28148F80A900998FDF728FC6B
:1037700004460998FDF726FC24239FE10998D0F818
:103780000E30D0F80A2000F11201D0F8060035F012
:10379000BBFF26E1099CE37C0A2B04F1120105D151
:1037A0001C220EA877F04FF80EA904E010220AA8F8
:1037B00077F049F80AA9D4F82EE0D4F80E30D4F8FE
:1037C0000A20D4F806008DE8024004F1320135F0F9
:1037D0009DFF04900998FDF7F3FB04460998FDF757
:1037E000F1FB042304AA6AE1DDF824B0DBF80A4007
:1037F000201D80B240F6BE13984284BF184640F6A2
:10380000BA1432F097FF0DF1380A8146002800F013
:103810000A81011DDBF80E30DBF80600224635F088
:103820007BFFF9E024040110C8E5FFFFB7E5FFFFC7
:10383000EDB20108DC740908DDF824B0DBF80A9069
:1038400009F1240080B240F6BE13984284BF1846A6
:1038500040F69A1932F06EFF0DF1380A0446A0B115
:1038600004F12002DBF80E30DBF806000192221D85
:10387000009204F124014A4635F050FF00282060F0
:1038800008DD24301FFA80F906E00E904FF025097C
:10389000544601E04FF025090998FDF791FB834656
:1038A0000998FDF78FFB4B46014622465846FDF727
:1038B000CBFB544500F007812046CAE0099BD3F8B2
:1038C0000A10D3F8060035F039FF8AE0099BD3F8D7
:1038D000060035F031FFC4E00023049306224FF0C8
:1038E000FF3301210220099C059335F0EDFEB0F174
:1038F00000094FDB0DF1600B42F210734BF8543DA1
:103900004FF0040A5B4641F2060240F6FF71CDF823
:1039100000A035F0DBFE5B4640F6FF71CDF800A05D
:1039200041F20502484635F0D1FEE3790A2B04F155
:10393000060105D11C220EA876F085FF0EA904E031
:1039400010220AA876F07FFF0AA9D4F82220484660
:1039500035F0C2FE002803DA484635F0EDFE19E0E6
:1039600004F1260A504677F04CFF05AB0028D4F846
:10397000A610009304F1AA0214BF53460023484640
:103980001FF08CFC049038B1069B0024C3F8009013
:10399000986003E0574C01E06FF4D3540998FDF7A9
:1039A0000FFB81460998FDF70DFB082304AA014689
:1039B0004846FDF749FB002818BF3446003418BFBD
:1039C000012481E0099BD3F806001FF08DFD08E07B
:1039D000099BD3F80A20D3F8060003F10E011FF06B
:1039E00099FE0E9062E0DDF824B0DBF80A40201D5D
:1039F00080B240F6BE13984284BF184640F6BA140F
:103A000032F098FE0DF1380A814660B1011D224660
:103A1000DBF806001FF085FE0028C9F8000007DD6E
:103A2000043084B205E0CDF838900524D14600E09A
:103A300005240998FDF7C4FA83460998FDF7C2FAF0
:103A4000234601464A465846FDF7FEFAD1453AD08C
:103A5000484632F0AFFE36E0099BD3F806001FF06F
:103A600067FE0E900998FDF7ABFA04460998FDF73A
:103A7000A9FA042301460EAA2046FDF7E5FA0E9C9A
:103A8000E443E40F20E0099BD3F806001FF06EFE2C
:103A90000321044635F028FE042140F001022046AF
:103AA00035F022FE0028A4BF00230E930998FDF7ED
:103AB00087FA04460998FDF785FA04230EAA014601
:103AC0002046FDF7C1FA0024099818B132F072FEC1
:103AD00000230993002C3FF42AAD2868FFF724FC4B
:103AE000FFF7ECFC19B0BDE8F08F2046FFF7E6FCCD
:103AF0003BE600BFB7E5FFFFF7B506460F46FFF709
:103B0000E3FB051E21DB154C142303FB0543186959
:103B100008B132F025FD0321102032F075FD142389
:103B200003FB0544E06080B100944FF400630C4A4D
:103B30000C49072032F0F8FC206130B13B46324698
:103B400000212846FFF766FC28B1284603B0BDE8EF
:103B5000F040FFF7B3BC03B0F0BD00BF2404011078
:103B6000EDB20108DC740908831D70B504460D46EA
:103B70000AD0D0F80600FFF7D7FB2B4622460121DA
:103B8000BDE87040FFF746BC70BD831D70B50446AC
:103B90000D460AD0D0F80600FFF7C6FB2B4622469A
:103BA0000421BDE87040FFF735BC70BD831D70B5C2
:103BB00004460D460AD0D0F80600FFF7B5FB2B46A9
:103BC00022460521BDE87040FFF724BC70BD831D6F
:103BD00070B504460D460AD0D0F80600FFF7A4FBE6
:103BE0002B4622460621BDE87040FFF713BC70BD8E
:103BF000831D70B504460D460AD0D0F80600FFF7C5
:103C000093FB2B4622460721BDE87040FFF702BC1C
:103C100070BD831D70B504460D460AD0D0F806006D
:103C2000FFF782FB2B4622460821BDE87040FFF7D4
:103C3000F1BB70BD831D70B504460D460AD0D0F8A7
:103C40000600FFF771FB2B4622460921BDE87040B4
:103C5000FFF7E0BB70BD831D70B504460D460AD06A
:103C6000D0F80600FFF760FB2B4622460221BDE894
:103C70007040FFF7CFBB70BD831D70B504460D4685
:103C80000AD0D0F80600FFF74FFB2B46224603214F
:103C9000BDE87040FFF7BEBB70BD831D70B5044624
:103CA0000D460AD0D0F80600FFF73EFB2B46224611
:103CB0000A21BDE87040FFF7ADBB70BD831D70B534
:103CC00004460D460AD0D0F80600FFF72DFB2B4620
:103CD00022460B21BDE87040FFF79CBB70BD831DE1
:103CE00070B504460D460AD0D0F80600FFF71CFB5D
:103CF0002B4622460C21BDE87040FFF78BBB70BD00
:103D0000F0B504468BB008460E4632F013FD05466A
:103D100060B13246214676F096FD00954FF400736F
:103D2000174A1849072032F0FFFB38BB0AAE4FF0A4
:103D3000FF33082204F10A0104A846F81C3D76F07E
:103D400082FD082204F1120106A876F07CFD08220B
:103D500004F11A0108A876F076FD2046FDF730F947
:103D600007462046FDF72EF91C2301463246384609
:103D7000FDF76AF915B1284632F01CFD0BB0F0BD15
:103D800019B10108E474090830B50446A1B02E2227
:103D9000002114A876F07DFD13AA0CA9D4F8060022
:103DA00035F0D6FC00280B9018DB9DF831500A2D19
:103DB00009D11C220CA904A876F045FD2E2314AAD3
:103DC00006A9284608E010220CA9684676F03BFDBB
:103DD0002E2314AA01A9022035F0CAFC2046FDF7C3
:103DE000EFF805462046FDF7EDF8242301460BAA1F
:103DF0002846FDF729F921B030BD30B50446A1B001
:103E00002E22002114A876F044FD13AA0CA9D4F8A0
:103E1000060035F09BFC00280B9018DB9DF8315014
:103E20000A2D09D11C220CA904A876F00CFD2E2322
:103E300014AA06A9284608E010220CA9684676F0C4
:103E400002FD2E2314AA01A9022035F091FC204680
:103E5000FDF7B6F805462046FDF7B4F824230146E1
:103E60000BAA2846FDF7F0F821B030BD7FB5054616
:103E700008460E4632F05EFC044660B132462946E2
:103E800076F0E1FC00944FF480630F4A0F4907205D
:103E900032F04AFBB0B94FF0FF33029328460023BB
:103EA0000393FDF78DF806462846FDF78BF80823A7
:103EB00001460DEB03023046FDF7C6F814B120466B
:103EC00032F078FC04B070BD93B10108EC740908BD
:103ED00070B50446E8B00025294640220AA801959D
:103EE00076F0D7FCD4F806320293D4F80A32039362
:103EF000D4F812320593D4F80E320493D4F8163263
:103F0000069304F21A2329464FF49C7207930995ED
:103F100004F2362304F583751AA8089376F0B9FCE9
:103F2000284677F06EFCA61D002818BF294601AB75
:103F300002AA08BF0021304635F004FC05461A905D
:103F4000E8B9019B1A681B925A681C92DA681E92A3
:103F50009A681D921A6959691F9220A81C2276F04E
:103F600072FC019BFF22996927A876F06CFC0198EE
:103F7000679540230AAA22A9406835F0F9FB019809
:103F800035F0E2FB2046FDF71BF805462046FDF71D
:103F900019F84FF49C7301461AAA2846FDF754F805
:103FA00068B070BD37B504468079431E032B03D833
:103FB0001FF05BF9002301E04FF0FF33204601932F
:103FC000FCF7FEFF05462046FCF7FCFF04230146F4
:103FD0000DEB03022846FDF737F803B030BD0000B3
:103FE00037B54FF0FF330193C388013B9BB240F6D6
:103FF000FE72934204460DD84FF4805200211C48B3
:1040000076F047FCE2881A4804F10A0176F01BFCBE
:10401000002301932389013B9BB240F6FE72934239
:104020000FD84FF480520021124876F032FCE3881A
:104030002289104804F10A01194476F004FC002397
:104040000193019B1BB90B4909481FF01DF920463C
:10405000FCF7B6FF05462046FCF7B4FF04230146F3
:104060000DEB03022846FCF7EFFF03B030BD00BFA5
:10407000EE14011021F4001037B54FF0FF33019317
:10408000C388013B9BB240F6FE72934204460DD8B2
:104090004FF480520021284876F0FBFBE288264846
:1040A00004F10C0176F0CFFB002301932389013B3F
:1040B0009BB240F6FE7293420FD84FF4805200211B
:1040C0001E4876F0E6FBE38822891C4804F10C01C7
:1040D000194476F0B8FB002301936389013BB3F5E3
:1040E000805F11D241F201020021154876F0D1FB28
:1040F000E28823891248134404F10C0119446289AF
:1041000076F0A1FB00230193019B23B90C4A0B49D4
:1041100009481FF0ABF82046FCF752FF0546204641
:10412000FCF750FF042301460DEB03022846FCF781
:104130008BFF03B030BD00BFEE14011021F400105E
:10414000ED040110F7B506460F46FFF7BDF8051E52
:1041500023DB164C142303FB0543186908B132F026
:10416000FFF90321102032F04FFA142303FB05441A
:10417000E06090B100944FF4A0530D4A0D49072020
:1041800032F0D2F9206140B10123237132463B461F
:104190000E212846FFF73EF928B1284603B0BDE8B6
:1041A000F040FFF78BB903B0F0BD00BF240401104D
:1041B000EDB20108FB740908831D70B504460D4675
:1041C0000AD0D0F80600FFF7AFF82B4622460D21A3
:1041D000BDE87040FFF71EB970BD831D70B5044681
:1041E0000D460CD0D0F806001FF0C0FAFFF79CF87F
:1041F0002B4622460F21BDE87040FFF70BB970BD7A
:10420000831D70B504460D460CD0D0F806001FF093
:10421000ADFAFFF789F82B4622461021BDE8704021
:10422000FFF7F8B870BD831D70B504460D460CD07D
:10423000D0F806001FF09AFAFFF776F82B462246D0
:104240001121BDE87040FFF7E5B870BD831D70B562
:1042500004460D460CD0D0F806001FF087FAFFF791
:1042600063F82B4622461221BDE87040FFF7D2B812
:1042700070BD00002DE9F0475F4C236886B005460D
:1042800093B15E4E306832F0B1F932F02FFA5C4BE8
:1042900001933F23009301465A4B5B4A5B4877F0FA
:1042A000B5F8306832F0A8F9594E96F80090B9F197
:1042B000000F30D1574FDFF87C8140224946384605
:1042C00076F0E7FA40224946404676F0E2FA05F1F8
:1042D000060A40F6787249464F4876F0DAFA5046B8
:1042E00077F08FFA3F282CD92368002B5DD0434EFE
:1042F000306832F07BF932F0F9F9484B01935023E2
:1043000000930146464B3F4A464877F07FF83068B5
:1043100032F072F949E0236883B1384E306832F0E8
:1043200065F932F0E3F9492300930146354B364AEB
:104330003D4877F06BF8306832F05EF94FF0FF33AC
:1043400032E005F14609484677F05BFA3F28CBD8C2
:104350003F225146384677F096FA49463F2240467A
:1043600077F091FA4146384601F094FA0028E5D1F9
:104370002368B3B1DFF88490D9F8000032F036F941
:1043800032F0B4F9592300930146CDF80880019723
:104390001C4B1D4A254877F039F8D9F8000032F057
:1043A0002BF901233370002305932846FCF708FE00
:1043B00006462846FCF706FE0423014605AA3046B9
:1043C000FCF742FE054698B123688BB10B4C206880
:1043D00032F00CF932F08AF9682300930146019516
:1043E000084B094A124877F011F8206832F004F9B6
:1043F00006B0BDE8F08700BF245501102855011014
:104400003C7509087975090883750908676D0908FD
:104410002E250110EE24011070250110B575090834
:1044200069750908586409088B750908BE7509087B
:10443000276C09082F2501107FB52D4C23680646EF
:1044400093B12C4D286832F0D1F832F04FF92A4B55
:104450000193712300930146284B294A294876F09D
:10446000D5FF286832F0C8F8274D2B78ABB9236800
:1044700083B1204D286832F0B9F832F037F975234E
:10448000009301461D4B1E4A204876F0BFFF286866
:1044900032F0B2F84FF0FF3303E001F085FA002369
:1044A0002B7030460393FCF78BFD05463046FCF736
:1044B00089FD0423014603AA2846FCF7C5FD0546ED
:1044C00098B123688BB10B4C206832F08FF832F032
:1044D0000DF98523009301460195084B084A0C48C5
:1044E00076F094FF206832F087F804B070BD00BF0A
:1044F0002455011028550110BB7709087975090862
:1045000083750908676D09082E250110F6750908DD
:10451000276C09082DE9F04F934B1A688DB00546BA
:10452000994692B1914C206832F060F832F0DEF892
:104530008F4B01939023009301468E4B8E4A8F48F8
:1045400076F064FF206832F057F88D4B1B78B3B9D2
:10455000D9F80030002B00F0A180844C206832F0A4
:1045600045F832F0C3F8942300930146814B824A08
:10457000844876F04BFF206832F03EF88EE0824AA5
:1045800000274FF4467101FB07F69419DFF8F88114
:1045900094F814331BB10137052FF4D1CCE0194640
:1045A0004FF446722046099376F073F9EB1D1946D5
:1045B0003F222046049377F066F906F1400208EBAB
:1045C0000203049305F1470319463F22049805931B
:1045D00077F059F906F1800208EB0203069305F122
:1045E000870319463F220698079377F04CF995F810
:1045F000C81095F8C72042EA0122A4F8C020D5F8D7
:10460000C920C4F8C22008EB060202F1C60318460E
:10461000FF2205F1CD0108EB0609089309F5E579BC
:1046200077F031F9D5F8CD21C4F8C62105F2D111C2
:104630000422484676F007F995F8E12184F8DA215A
:10464000AA79049B84F81523B4F8C020C4F8E0319B
:10465000A4F8E821069BD4F8C220C4F8E431C4F8D9
:10466000EC21089BD4F8C621C4F8F42108EB06001D
:104670004946C4F8DC41C4F8F031042200F5FC706E
:1046800076F0E1F808EB060094F8151300F5EE70EB
:1046900003F040FA60B3099B84F814334FF0FF3302
:1046A00028460B93FCF78CFC04462846FCF78AFC52
:1046B000042301460BAA2046FCF7C6FC0546002849
:1046C0004ED0294B1B68002B4AD0284C206831F073
:1046D0008DFF32F00BF8D823009301460195254B4E
:1046E000254A2A4876F092FE206831F085FF37E0AF
:1046F0001D4B1B68B3B11D4C206831F077FF31F0C2
:10470000F5FF079B0393059B0293EB1D0193C823C1
:1047100000930146174B184A1D4876F077FE206833
:1047200031F06AFF184A4FF4467303FB0727012351
:1047300087F814330023B3E7D9F80030002BADD04D
:104740000A4C206831F052FF31F0D0FFA7230093CC
:1047500001460197074B084A0E4876F057FE0AE7D4
:104760000DB0BDE8F08F00BF245501102855011091
:10477000E37709087975090883750908676D0908E1
:104780002E250110F675090870250110276C0908FF
:104790004B7609081C7609082DE9F04F684D2B6807
:1047A00087B0044693B1674E306831F01FFF31F097
:1047B0009DFF654B0193E32300930146634B644ADD
:1047C000644876F023FE306831F016FF624B1B78A8
:1047D000ABB92B6883B15B4E306831F007FF31F025
:1047E00085FFE72300930146584B594A5B4876F012
:1047F0000DFE306831F000FF4FF0FF335AE0584EA5
:10480000002704F1070804F1470904F1870A96F824
:1048100094322BB90137052F06F54676F7D171E0B2
:1048200096F89522A3799A42F4D14146A6F18000E8
:1048300076F0BAFF0028EDD14946A6F1400076F0A7
:10484000B3FF0028E6D15146304676F0ADFF002890
:10485000E0D1444E4FF446707843331803F5EE70C0
:1048600093F8151303F070F90028C5D12B68D3B164
:10487000DFF8D0B0DBF8000031F0B8FE31F036FFE1
:104880004FF4847300930146CDF80CA0CDF8089046
:10489000CDF804802D4B2E4A334876F0B7FDDBF877
:1048A000000031F0A9FE4FF4467303FB07660023B6
:1048B00086F8143320460593FCF782FB0646204613
:1048C000FCF780FB0423014605AA3046FCF7BCFB3D
:1048D0000646002831D02B68002B2ED0194C2068BA
:1048E00031F084FE31F002FF40F2171300930146CD
:1048F0000196164B164A1D4876F088FD206831F067
:104900007BFE1AE02B68002B3FF476AF0D4E30682B
:1049100031F06CFE31F0EAFE04F18703039304F1F9
:1049200047030293E31D0193FE2300930146074BC7
:10493000074A0F4876F06AFD5BE707B0BDE8F08FE5
:1049400024550110285501102775090879750908A3
:1049500083750908676D09082E250110F675090889
:10496000F025011070250110AC760908276C0908A4
:104970007A7609087FB52F4C236806469BB12E4DE9
:10498000286831F033FE31F0B1FE2C4B019340F238
:104990002113009301462A4B2A4A2B4876F036FD14
:1049A000286831F029FE294B1B78BBB923688BB1ED
:1049B000214D286831F01AFE31F098FE40F225139F
:1049C000009301461E4B1F4A214876F01FFD2868C0
:1049D00031F012FE4FF0FF33039305E0B07903F09E
:1049E000C5F80028F6D103903046FCF7E9FA0546F1
:1049F0003046FCF7E7FA0423014603AA2846FCF7F1
:104A000023FB0546A0B1236893B10B4C206831F01D
:104A1000EDFD31F06BFE4FF49F730093014601955D
:104A2000074B084A0B4876F0F1FC206831F0E4FDB2
:104A300004B070BD2455011028550110CA7709082B
:104A40007975090883750908676D09082E25011015
:104A5000F6750908276C0908F0B5484D2B6887B032
:104A600004469BB1464E306831F0C0FD31F03EFE49
:104A7000444B01934FF4A47300930146424B434AC5
:104A8000434876F0C3FC306831F0B6FD414B1B78EB
:104A9000B3B92B688BB13A4E306831F0A7FD31F0D5
:104AA00025FE4FF4A67300930146374B374A3A4828
:104AB00076F0ACFC306831F09FFD4FF0FF331EE024
:104AC000E179A07902F00AF82B68074640BBABB148
:104AD0002B4E306831F08AFD31F008FEE379029305
:104AE000A37901934FF4AC7300930146264B274AF8
:104AF0002A4876F08BFC306831F07EFD002320469A
:104B00000593FCF75DFA06462046FCF75BFA0423A2
:104B1000014605AA3046FCF797FA0646B8B92BE0DD
:104B2000002BCAD0164E306831F060FD31F0DEFD4A
:104B30000397E3790293A379019340F25D13009305
:104B40000146114B114A164876F060FCB2E72B681B
:104B500093B10B4C206831F049FD31F0C7FD40F2B4
:104B60006713009301460196074B084A0D4876F0FB
:104B70004DFC206831F040FD07B0F0BD2455011018
:104B8000285501104C7509087975090883750908BD
:104B9000676D09082E250110F6750908DD760908EC
:104BA0000A770908276C0908F0B53E4C236885B0E0
:104BB00007469BB13C4D286831F018FD31F096FD59
:104BC0003A4B01934FF4B97300930146384B394A7D
:104BD000394876F01BFC286831F00EFDBE1D3046CA
:104BE00076F00FFE3F2817D92368002B34D02E4DC6
:104BF000286831F0FBFC31F079FD304B01934FF424
:104C0000BE73009301462E4B294A2E4876F0FEFBD8
:104C1000286831F0F1FC1FE02B4D3F223146284639
:104C200076F031FE284601F093FB236893B11E4EC7
:104C3000306831F0DBFC31F059FD4FF4C173009363
:104C4000014601951A4B1B4A204876F0DFFB30687D
:104C500031F0D2FC002303933846FCF7B1F9054646
:104C60003846FCF7AFF90423014603AA2846FCF7AF
:104C7000EBF90546A0B1236893B10B4C206831F0E5
:104C8000B5FC31F033FD40F28B13009301460195E2
:104C9000074B084A0E4876F0B9FB206831F0ACFCAF
:104CA00005B0F0BD2455011028550110F67709080C
:104CB0007975090883750908676D09083F77090840
:104CC0000D780908586409082F2501104C77090848
:104CD000276C09082DE9F0475A4D2B6886B0044629
:104CE0009BB1594E306831F081FC31F0FFFC574BDD
:104CF00001934FF4CB7300930146554B554A5648E8
:104D000076F084FB306831F077FC544F002604F1D4
:104D1000060804F1460A04F1860997F8D4322BB943
:104D20000136052E07F54677F7D169E04146A7F130
:104D3000400076F039FD0028F2D15146384676F031
:104D400033FD0028ECD1494607F1400076F02CFDF8
:104D50000028E5D1424B94F8E1224FF4467000FB65
:104D6000063004F2E11100F5EE7003F099FA10B18B
:104D70004FF0FF331CE02B68CBB1334E306831F07D
:104D800035FC31F0B3FC94F8E132039304F1CC0329
:104D900002934FF4DD7300930146CDF804802C4B51
:104DA0002C4A304876F032FB306831F025FC002385
:104DB00020460593FCF704F906462046FCF702F965
:104DC0000423014605AA3046FCF73EF906460028B2
:104DD00034D02B68002B31D01B4C206831F006FCFE
:104DE00031F084FC4FF4E473009301460196184BB4
:104DF000184A1D4876F00AFB206831F0FDFB1DE0E3
:104E00002B68002BB4D0104E306831F0EFFB31F03E
:104E10006DFCA31D04F186020392019304F1460286
:104E20004FF4D873029200930146094B094A0F4888
:104E300076F0ECFA306831F0DFFB99E706B0BDE8B8
:104E4000F08700BF2455011028550110117509087D
:104E50007975090883750908676D0908B02501107F
:104E60007025011075770908276C09087A760908FA
:104E70007FB504460E4671B9644B1B68002B00F0E9
:104E8000C380634C206831F0B1FB31F02FFC614BE3
:104E90000193152341E0052870D15C4C2368B3B120
:104EA0005B4D286831F0A2FB31F020FCB6F85C3293
:104EB0000293D6F8583201931A2300930146564BB9
:104EC000564A574876F0A2FA286831F095FB2368D5
:104ED00083B14F4D286831F089FB31F007FC1C236A
:104EE000009301464C4B4D4A4E4876F08FFA2868A5
:104EF00031F082FBB6F85C12D6F8580220F044FA82
:104F000088B12368002B7FD0414C206831F06EFBC4
:104F100031F0ECFB444B01931E2300930146434BBD
:104F20003D4A434868E0FCF7FDF960B12368002B77
:104F30006AD0374C206831F059FB31F0D7FB3D4B3C
:104F400001932223E9E7C82031F0DCFB236883B119
:104F50002F4C206831F04AFB31F0C8FB2523009329
:104F600001462D4B2D4A344876F050FA206831F036
:104F700043FB04B0BDE8704037F014BC00F0FB0305
:104F8000022B25D1214B1A681D468AB1204E30686C
:104F900031F02CFB31F0AAFB2A2300930146019447
:104FA0001D4B1E4A254876F031FA306831F024FB5B
:104FB0000120FCF7B7F938B32B682BB3144C2068E9
:104FC00031F014FB31F092FB1D4B01932D23A4E72C
:104FD000012819D10D4B1B68B3B10D4C206831F07D
:104FE00005FB31F083FBD6F8643201933123009343
:104FF0000146094B094A134876F008FA206804B0C4
:10500000BDE8704031F0F8BA04B070BD245501100D
:105010002855011022260A08377809083E78090821
:1050200069780908BB780908E8780908247809082C
:1050300058640908087909082A790908577909087C
:1050400083790908A47909082DE9FF41354D0E46F9
:10505000904607462B6800B1A9B9002B5CD0324CB2
:10506000206831F0C3FA31F041FB304B019340230B
:10507000009301462E4B2F4A2F4876F0C7F920683F
:1050800031F0BAFA48E093B1274C206831F0AEFA1B
:1050900031F02CFB42230093014602960197254BE9
:1050A000264A274876F0B2F9206831F0A5FA254C57
:1050B0004FF41A720021204675F0EBFB4FF400729A
:1050C0003946201D76F0DFFB01234022314604F5EE
:1050D0000170637076F0D7FB1B4B84F8008020468C
:1050E000C4F8543207F05AF80446B8B12B68ABB193
:1050F0000D4D286831F07AFA31F0F8FA0B4B019334
:105100004C23009301460A4B0A4A0B4876F07EF97D
:10511000286831F071FA01E04FF0FF34204604B006
:10512000BDE8F081245501102855011022260A08F7
:10513000027A090837780908586409083E7809088E
:10514000CB790908E83401103DCC010873B5324B26
:10515000324940F65E52054607F0E8FE044630B399
:105160002F4B1A681D4692B12E4E306831F03EFA30
:1051700031F0BCFA2C4B01938923009301462B4B51
:105180002B4A2C4876F042F9306831F035FA2B681A
:10519000002B3ED0234D286831F028FA31F0A6FAD2
:1051A000892300930146224B234A24482CE040F6F1
:1051B0005E522349A86C07F019FE044648B3184B09
:1051C0001A681D4692B1174E306831F00FFA31F06F
:1051D0008DFA154B01938C2300930146134B144A0F
:1051E000144876F013F9306831F006FA2B6883B171
:1051F0000C4D286831F0FAF931F078FA8C230093DD
:1052000001460B4B0C4A0F4876F000F9286831F044
:10521000F3F9204602B070BD307A09083A7A0908DD
:10522000245501102855011022260A087C7D090802
:105230004C7A090858640908587A0908617A0908FB
:1052400062870908A57A09082DE9F04F9DB08046CC
:105250001FF008FD06464FF4007031F06BFA4FF472
:10526000007201460746404607F0ACFE9F4C68B10D
:105270002368002B00F00A819D4D286831F0B6F9B3
:1052800031F034FA9B4B0193A12313E0202304AAAD
:105290009949384607F032FBB8B12368002B00F07B
:1052A000F580934D286831F0A1F931F01FFA914B48
:1052B0000193A42300930146904B914A914876F0C4
:1052C000A5F8286831F098F9CDE001228E4904A8AC
:1052D00076F0C4FA002800F0C68006F120092022EA
:1052E00004A9484676F0CFFA40230CAA87493846ED
:1052F00007F004FB834668B12368002B00F0C680EA
:105300007B4D286831F072F931F0F0F9794B019357
:10531000AC23CFE706F1840540220CA9284606F10C
:10532000400A76F0B0FA40220CA9504676F0ABFA6B
:10533000284676F066FAC6F8C400284676F061FA88
:10534000C6F8D0B0C6F880000622594606F1C8005B
:1053500075F09FFA072386F8D430012386F8D730FA
:105360002368A3B1624D286831F040F931F0BEF9ED
:10537000BE2300930146CDF808A0CDF80490604B01
:10538000634A644876F042F8286831F035F9624B98
:10539000624940F6BC12404607F0C8FD054628B3F6
:1053A000236893B1524E306831F020F931F09EF904
:1053B000504B0193C12300930146504B504A514832
:1053C00076F024F8306831F017F92368002B00F0EC
:1053D000E280474C206831F009F931F087F9C123A8
:1053E00000930146464B4A4A4D48CFE040F6BC1276
:1053F0004C49D8F8480007F0F9FC054628B3236863
:1054000093B13B4E306831F0F1F831F06FF9394B20
:105410000193C42300930146384B394A394875F04B
:10542000F5FF306831F0E8F82368002B00F0B38016
:105430002F4C206831F0DAF831F058F9C42300938A
:1054400001462F4B324A3848A0E0012386F8183134
:10545000504676F0D6F9009502462B46514648460E
:1054600041F0F2FD97E0236883B1214D286831F0C7
:10547000BDF831F03BF9CD2300930146204B244A7F
:105480002A4875F0C3FF286831F0B6F8224B23494B
:1054900040F6C922404607F049FD0546002849D09C
:1054A000236893B1124E306831F0A0F831F01EF944
:1054B000104B0193D02300930146104B104A114822
:1054C00075F0A4FF306831F097F82368002B62D0A4
:1054D000074C206831F08AF831F008F9D0230093A6
:1054E0000146074B0A4A124850E000BF24550110FC
:1054F0002855011022260A08F4A20B08A57D0908E8
:105500004C7A0908586409080D7A0908E67A0908EE
:10551000587A0908EB7A0908307A09083A7A0908B2
:10552000227B0908BA7D0908667B0908A77B090860
:10553000CD7B090840F6C9221B49D8F8480007F07E
:1055400055FC054638B3236893B1184E306831F0E6
:105550004DF831F0CBF8164B0193D323009301465D
:10556000144B154A154875F051FF306831F044F876
:10557000236883B10D4C206831F038F831F0B6F86B
:10558000D323009301460C4B0D4A0E4875F03EFFA5
:10559000206831F031F817B1384631F00BF9284660
:1055A0001DB0BDE8F08F00BFB09409082855011068
:1055B00022260A08A57D09084C7A090858640908BA
:1055C000587A09080E7C090873B54D4C236883B1DD
:1055D0004C4D286831F00AF831F088F8F023009338
:1055E0000146494B494A4A4875F010FF286831F096
:1055F00003F8484E3378002B2ED107F095FF05466F
:1056000040B3236893B13F4E306830F0EFFF31F084
:105610006DF8414B0193F523009301463F4B3A4A05
:105620003F4875F0F3FE306830F0E6FF236873B34F
:10563000344E306830F0DAFF31F058F8F52300933B
:105640000146314B314A374875F0E0FE306830F0A2
:10565000D3FF1CE00123337007F038FF0546002814
:105660002DD023688BB1274E306830F0BFFF31F06A
:105670003DF84FF4807300930146234B234A2A4898
:1056800075F0C4FE306830F0B7FF07F043FF2368C1
:10569000002B32D01B4C206830F0A8FF31F026F8E8
:1056A0001D4B01934FF48673009301461F4B164A1E
:1056B0001B4875F0ABFE206830F09EFF1DE01C4BD0
:1056C0001A781E46CAB903211A4807F029FB90B17F
:1056D000236883B10B4C206830F088FF31F006F866
:1056E000E82300930146084B084A134875F08EFEE4
:1056F000206830F081FF01233370284602B070BD6E
:1057000024550110285501104C7A0908587A0908C7
:105710004C7C09085137011022260A080F7A090823
:10572000586409087A7C0908A97C0908207A0908C4
:1057300050370110A0DE0010DA7C090873B5234C45
:1057400023688BB1224D286830F050FF30F0CEFF37
:105750004FF48E73009301461E4B1F4A1F4875F08D
:1057600055FE286830F048FF07F0D2FE064648B3E1
:1057700023689BB1164D286830F038FF30F0B6FF33
:10578000174B01934FF48F7300930146154B114A49
:10579000154875F03BFE286830F02EFF23688BB16A
:1057A0000B4C206830F022FF30F0A0FF4FF48F73D5
:1057B00000930146074B084A0C4875F027FE206805
:1057C00030F01AFF304602B070BD00BF2455011002
:1057D000285501104C7A0908587A0908127D0908E1
:1057E00022260A08967D0908586409083A7D0908A6
:1057F00008B50121084601F071F901210020BDE83A
:10580000084001F06BB9012810B5044602D0032806
:1058100006D010BD002101F04BF90021204605E023
:105820000021084601F044F900210846BDE8104077
:1058300001F054B9012907B54FF00003024604D125
:105840000093094940F2DC5305E0022907D10749DA
:1058500000934FF40063072030F066FE00E0184626
:1058600003B05DF804FB00BF629F0908739F09083D
:1058700030F03CBF10B5044630F038FF75F040FE04
:1058800075F066FE6FF0004393FBF4F3013390FB79
:10589000F3F010BDF7B507460D4600223849012048
:1058A0001FF024F9044668B1364B1B68002B64D006
:1058B000354D286830F09AFE30F018FF334B0193D5
:1058C000C3234BE00246324907201FF00FF904467C
:1058D00068B12C4B1B68002B4FD02B4D286830F043
:1058E00085FE30F003FF294B0193C62336E015B344
:1058F000284E3378FBB92946384602F055F805465C
:10590000B8B1204B1B68002B36D01F4C206830F0FC
:105910006DFE30F0EBFE1D4B0193CD23009301464D
:105920001D4B1E4A1E4875F071FD206830F064FE64
:1059300022E0012333701B4D2B78F3B900F088F976
:105940000446B0B10F4B1B68BBB10F4D286830F057
:105950004DFE30F0CBFE0D4B0193D8230093014652
:105960000D4B0E4A0E4875F051FD286830F044FE8C
:1059700003E001232B7000E02C46204603B0F0BD6D
:10598000D3D50108245501102855011022260A08F4
:10599000BDD501089D370110939F0908879F09080D
:1059A000586409089C37011010B50C4C23781BB1C2
:1059B00002F066F800232370094C23781BB100F035
:1059C00049F900232370074901201FF0E9F806492F
:1059D0000720BDE810401FF0E3B800BF9D3701105D
:1059E0009C370110D3D50108BDD5010870B592B020
:1059F000FF230126002202210A2003968DF80B3096
:105A000033F062FE041E4BDB0422009203AB40F62F
:105A1000FF7133F05BFE002804DA204633F08CFE81
:105A200021483EE0102221490A9606A874F00BFF97
:105A3000142300930C2206AB2921204633F046FEA6
:105A40000A238DF82D304EF61413ADF82E30184B76
:105A50000FCB0DAD85E80F001C220BA9204633F0BB
:105A600039FE054620B1204633F066FE114818E0A5
:105A7000114B5B680493114B1B6805930823014687
:105A80000093032204AB204633F020FE00960DF174
:105A90000B0305222946204633F018FE204600E07D
:105AA000074812B070BD00BFCD70FFFF04DF0010CB
:105AB00058810110CB70FFFF18DF001054810110D6
:105AC000CE70FFFF70B5104C54F82030002B054607
:105AD0000E460DDA002A0BDD1046082130F094FD49
